:100000000C94FE000C941F010C941F010C941F0112
:100010000C941F010C941F010C941F010C941F01E0
:100020000C941F010C941F010C941F010C941F01D0
:100030000C941F010C941F010C941F010C941F01C0
:100040000C941F010C941F010C941F010C941F01B0
:100050000C941F010C941F010C941F010C941F01A0
:100060000C941F010C941F010C941F010C941F0190
:100070000C941F010C941F010C941F010C941F0180
:100080000C941F010C941F010C941F010C941F0170
:100090000C941F010C941F010C941F010C941F0160
:1000A0000C941F010C941F010C941F010C941F0150
:1000B0000C941F010C941F010C941F010C941F0140
:1000C0000C941F010C941F010C941F010C941F0130
:1000D0000C941F010C941F010C941F010C941F0120
:1000E0000C941F010C941F010C941F010C941F0110
:1000F0000C941F010C941F010C941F010C941F0100
:100100000C941F010C941F010C941F010C941F01EF
:100110000C941F010C941F010C941F010C946A0194
:100120000C941F010C941F010C941F010C941F01CF
:100130000C941F010C941F010C941F010C941F01BF
:100140000C941F010C941F010C941F010C941F01AF
:100150000C941F010C941F010C941F010C941F019F
:100160000C941F010C941F010C941F010C941F018F
:100170000C941F010C941F010C941F010C941F017F
:100180000C941F010C941F010C941F010C941F016F
:100190000C941F010C941F010C941F010C941F015F
:1001A0000C941F010C941F010C941F010C941F014F
:1001B0000C941F010C941F010C941F010C941F013F
:1001C0000C941F010C941F010C941F010C941F012F
:1001D0000C941F010C941F010C941F010C941F011F
:1001E0000C941F010C941F010C941F010C941F010F
:1001F0000C941F010C941F010C941F0111241FBEAD
:10020000CFEFCDBFDFE5DEBF00E00CBF10E2A0E026
:10021000B0E2EAEDFAE000E00BBF02C007900D92F9
:10022000A831B107D9F720E2A8E1B0E201C01D92E0
:10023000A234B207E1F70E941A030C946B050C94E8
:100240000000E0E5F0E08BEC8283808188608083B1
:10025000818183FFFDCFE0E5F0E082EC8583808142
:1002600080618083818184FFFDCF88ED84BF84E03D
:1002700080934000E0E5F0E080818E7F8083808184
:100280008D7F80830895E0E0FAE0118284E080832E
:100290008FE99FE086A397A308958CE080930206E0
:1002A000E0E0F2E085E181A382E080A390E1928327
:1002B0009183848381E0838390EE9093800182A375
:1002C00080830895E0E2F3E088E08283118285E094
:1002D000808308951F920F920FB60F9211240BB6D0
:1002E0000F922F923F924F925F926F927F928F92D6
:1002F0009F92AF92BF92CF92DF92EF92FF920F93B5
:100300001F932F933F934F935F936F937F938F939D
:100310009F93AF93BF93CF93DF93EF93FF9381E0CE
:100320008093470670904120072D10E060912402D1
:1003300070912502E801CC0FDD1FCC0FDD1F9E015F
:100340002B5C3F4D790180E090E00E944804D7018A
:100350006D937D938D939C9313977801B1E0EB1A85
:10036000F108C75DDF4DC80102970F2EF3E0AF2EF5
:10037000B12CF02DB5010E944305FC01EE0FFF1FCB
:10038000EE0FFF1FEB5CFF4D0F2EFCE0CF2EF0E2D7
:10039000DF2EF02DD6012D913D914D915C91608124
:1003A0007181828193810E94D6041B012C01C701B7
:1003B000B5010E944305FC01EE0FFF1FEE0FFF1F6A
:1003C000EB5CFF4DD60114962D913D914D915C91C2
:1003D000179760817181828193810E94D60420E009
:1003E00030E0A9010E9434039B01AC01C201B101BC
:1003F0000E943403688379838A839B830F2EF4E001
:10040000CF2EF0E2DF2EF02DE7010F2EFCE08F2E35
:10041000F0E29F2EF02DC801880F991F880F991FB9
:10042000FC01E75DFF4D7F01D6012D903D904D9081
:100430005D906D01CE01B5010E944305FC01EE0FF8
:10044000FF1FEE0FFF1FE75DFF4DC201B101905886
:1004500020813181428153810E94D604F70120819D
:100460003181428153810E943403D7016D937D9382
:100470008D939C9313972197C814D904A9F629E664
:100480003CE14FE159E40E94A0036B017C01F801BB
:10049000EE0FFF1FEE0FFF1FE75DFF4D60837183BF
:1004A00082839383B0902820CB2DD0E081E090E030
:1004B000772011F080E090E0880F991F880F991F36
:1004C000FC01E05EFF4D2FEF3FEF49EF54EC608100
:1004D0007181828193810E94D6042B013C012FEF10
:1004E0003FEF49EF54E4C701B6010E94D6049B01D7
:1004F000AC01C301B2010E943403FE01EE0FFF1FE5
:10050000EE0FFF1FE05EFF4D608371838283938354
:10051000FF24F394B110F12C2BE032E84FE254E4C5
:100520000E9433034B015C01EF2DF0E0EE0FFF1F43
:10053000EE0FFF1FE85EFF4D2FEF3FEF49EF54E452
:1005400060817181828193810E94D6049B01AC01FC
:10055000C501B4010E94330320E030E040E05FE3D6
:100560000E94D6042FE632E143E85AE30E94A0033A
:100570002BE032E84FE254E40E9434034B015C016B
:10058000CC0FDD1FCC0FDD1FC85EDF4D6883798384
:100590008A839B83C801019663E070E00E94430553
:1005A00080934120F0922820C501B4010E941204DA
:1005B000072E000C880B990B0E944A0420EC37EFA1
:1005C00043E056E40E94D60423E333E343ED55E4CD
:1005D0000E94A0030E9419046093380370933903AA
:1005E000E0E2F3E085818823E9F3FF91EF91DF9169
:1005F000CF91BF91AF919F918F917F916F915F91BB
:100600004F913F912F911F910F91FF90EF90DF90AD
:10061000CF90BF90AF909F908F907F906F905F90A2
:100620004F903F902F900F900BBE0F900FBE0F90EA
:100630001F90189581E08093410684E08093210605
:1006400083E08093A1060E9421010E9443010E9441
:1006500062010E944D01E0EAF0E0828183608283C2
:1006600078940000FECF5058BB27AA270E944B0366
:100670000C949C040E948E0438F00E94950420F093
:1006800039F49F3F19F426F40C948B040EF4E09592
:10069000E7FB0C948504E92F0E94AD0458F3BA17C8
:1006A000620773078407950720F079F4A6F50C9488
:1006B000CF040EF4E0950B2EBA2FA02D0B01B9013B
:1006C00090010C01CA01A0011124FF27591B99F0C8
:1006D000593F50F4503E68F11A16F040A22F232FD4
:1006E000342F4427585FF3CF469537952795A79524
:1006F000F0405395C9F77EF41F16BA0B620B730BCB
:10070000840BBAF09150A1F0FF0FBB1F661F771F3B
:10071000881FC2F70EC0BA0F621F731F841F48F4F0
:10072000879577956795B795F7959E3F08F0B0CF79
:100730009395880F08F09927EE0F97958795089560
:100740000E94B4030C949C040E94950458F00E94EB
:100750008E0440F029F45F3F29F00C948504511178
:100760000C94D0040C948B040E94AD0468F399237C
:10077000B1F3552391F3951B550BBB27AA2762179D
:100780007307840738F09F5F5F4F220F331F441FAA
:10079000AA1FA9F335D00E2E3AF0E0E832D09150DE
:1007A0005040E695001CCAF72BD0FE2F29D0660FCB
:1007B000771F881FBB1F261737074807AB07B0E80E
:1007C00009F0BB0B802DBF01FF2793585F4F3AF014
:1007D0009E3F510578F00C9485040C94D0045F3F43
:1007E000E4F3983ED4F3869577956795B795F7959A
:1007F0009F5FC9F7880F911D9695879597F9089582
:10080000E1E0660F771F881FBB1F6217730784071D
:10081000BA0720F0621B730B840BBA0BEE1F88F72C
:10082000E09508950E9419046894B1110C94D004C5
:1008300008950E94B50488F09F5798F0B92F992722
:10084000B751B0F0E1F0660F771F881F991F1AF0BB
:10085000BA95C9F714C0B13091F00E94CF04B1E04D
:1008600008950C94CF04672F782F8827B85F39F04C
:10087000B93FCCF3869577956795B395D9F73EF454
:1008800090958095709561957F4F8F4F9F4F0895FC
:10089000E89409C097FB3EF490958095709561951A
:1008A0007F4F8F4F9F4F9923A9F0F92F96E9BB27D0
:1008B0009395F695879577956795B795F111F8CF4C
:1008C000FAF4BB0F11F460FF1BC06F5F7F4F8F4FB7
:1008D0009F4F16C0882311F096E911C0772321F0AD
:1008E0009EE8872F762F05C0662371F096E8862F45
:1008F00070E060E02AF09A95660F771F881FDAF79C
:10090000880F9695879597F9089597F99F6780E8DE
:1009100070E060E008959FEF80EC089500240A9451
:100920001616170618060906089500240A941216CA
:100930001306140605060895092E0394000C11F4FD
:10094000882352F0BB0F40F4BF2B11F460FF04C0AA
:100950006F5F7F4F8F4F9F4F089557FD9058440F03
:10096000551F59F05F3F71F04795880F97FB991F0E
:1009700061F09F3F79F087950895121613061406CB
:10098000551FF2CF4695F1DF08C016161706180658
:10099000991FF1CF86957105610508940895E89433
:1009A000BB2766277727CB0197F908950E94E904B2
:1009B0000C949C040E948E0438F00E94950420F050
:1009C000952311F00C9485040C948B0411240C9441
:1009D000D0040E94AD0470F3959FC1F3950F50E0D1
:1009E000551F629FF001729FBB27F00DB11D639FE1
:1009F000AA27F00DB11DAA1F649F6627B00DA11D87
:100A0000661F829F2227B00DA11D621F739FB00D2C
:100A1000A11D621F839FA00D611D221F749F33279C
:100A2000A00D611D231F849F600D211D822F762F35
:100A30006A2F11249F5750409AF0F1F088234AF012
:100A4000EE0FFF1FBB1F661F771F881F915050407E
:100A5000A9F79E3F510580F00C9485040C94D004B6
:100A60005F3FE4F3983ED4F3869577956795B79505
:100A7000F795E7959F5FC1F7FE2B880F911D96951F
:100A8000879597F9089597FB072E16F4009407D0E1
:100A900077FD09D00E94570507FC05D03EF49095DC
:100AA00081959F4F0895709561957F4F0895AA1B7A
:100AB000BB1B51E107C0AA1FBB1FA617B70710F049
:100AC000A61BB70B881F991F5A95A9F7809590957B
:0A0AD000BC01CD010895F894FFCF9A
:100ADA00691C1F49565EA5487CD898C8000080400A
:080AEA00000000C10000804083
:00000001FF
